:100000000C9456220C947E220C947E220C947E2218
:100010000C947E220C947E220C947E220C947E22E0
:100020000C947E220C947E220C941E280C948D2815
:100030000C947E220C947E220C947E220C947E22C0
:100040000C947E220C947E220C947E220C947E22B0
:100050000C947E220C947E220C947E220C94BF2A57
:100060000C947E220C947E220C947E220C947E2290
:100070000C947E220C947E220C947E220C947E2280
:100080000C94092B0C947E220C947E220C947E22DC
:100090000C947E220C947E220C947E220C947E2260
:1000A0000C947E220C947E220C947E220000000090
:1000B000003E5B4F5B3E3E6B4F6B3E1C3E7C3E1CEE
:1000C000183C7E3C181C577D571C1C5E7F5E1C0034
:1000D000183C1800FFE7C3E7FF0018241800FFE7EB
:1000E000DBE7FF30483A060E2629792926407F05AE
:1000F0000507407F05253F5A3CE73C5A7F3E1C1CC4
:1001000008081C1C3E7F14227F22145F5F005F5F83
:1001100006097F017F006689956A6060606060946F
:10012000A2FFA29408047E040810207E2010080874
:100130002A1C08081C2A08081E101010100C1E0C7F
:100140001E0C30383E3830060E3E0E060000000011
:100150000000005F00000007000700147F147F14F8
:10016000242A7F2A1223130864623649562050003D
:1001700008070300001C2241000041221C002A1C29
:100180007F1C2A08083E0808008070300008080814
:100190000808000060600020100804023E51494534
:1001A0003E00427F400072494949462141494D3352
:1001B0001814127F1027454545393C4A49493141B9
:1001C000211109073649494936464949291E000087
:1001D00014000000403400000008142241141414DC
:1001E0001414004122140802015909063E415D59C8
:1001F0004E7C1211127C7F494949363E41414122D1
:100200007F4141413E7F494949417F090909013EFA
:10021000414151737F0808087F00417F4100204021
:10022000413F017F081422417F404040407F021C33
:10023000027F7F0408107F3E4141413E7F0909094A
:10024000063E4151215E7F09192946264949493216
:1002500003017F01033F4040403F1F2040201F3FDC
:100260004038403F63140814630304780403615961
:10027000494D43007F4141410204081020004141A3
:10028000417F04020102044040404040000307084F
:100290000020545478407F2844443838444444284B
:1002A000384444287F385454541800087E090218F2
:1002B000A4A49C787F0804047800447D400020407A
:1002C000403D007F1028440000417F40007C0478BE
:1002D00004787C080404783844444438FC18242406
:1002E0001818242418FC7C08040408485454542486
:1002F00004043F44243C4040207C1C2040201C3C03
:100300004030403C44281028444C9090907C4464F9
:10031000544C44000836410000007700000041368C
:10032000080002010204023C2623263C1EA1A16112
:10033000123A4040207A3854545559215555794144
:100340002154547841215554784020545579400C1B
:100350001E527212395555555939545454593955FC
:100360005454580000457C410002457D420001453F
:100370007C40F0292429F0F0282528F07C545545AC
:10038000002054547C547C0A097F4932494949323F
:100390003248484832324A4848303A4141217A3A54
:1003A00042402078009DA0A07D39444444393D401E
:1003B00040403D3C24FF2424487E4943662B2FFCCB
:1003C0002F2BFF0929F620C0887E09032054547979
:1003D000410000447D413048484A32384040227A4A
:1003E000007A0A0A727D0D19317D2629292F2826C7
:1003F0002929292630484D402038080808080808CF
:100400000808382F10C8ACBA2F102834FA00007B27
:10041000000008142A142222142A1408950022002D
:1004200095AA005500AAAA55AA55AA000000FF00E7
:10043000101010FF00141414FF001010FF00FF1024
:1004400010F010F0141414FC001414F700FF000056
:10045000FF00FF1414F404FC141417101F10101FD5
:10046000101F1414141F00101010F0000000001FC3
:10047000101010101F10101010F010000000FF10CE
:100480001010101010101010FF10000000FF1400CA
:1004900000FF00FF00001F10170000FC04F41414FC
:1004A0001710171414F404F40000FF00F7141414C8
:1004B00014141414F700F7141414171410101F1048
:1004C0001F141414F4141010F010F000001F101F6B
:1004D0000000001F14000000FC140000F010F010D9
:1004E00010FF10FF141414FF141010101F00000050
:1004F00000F010FFFFFFFFFFF0F0F0F0F0FFFFFF54
:100500000000000000FFFF0F0F0F0F0F38444438AA
:10051000447C2A2A3E147E02020606027E027E02E5
:1005200063554941633844443C04407E201E200604
:10053000027E020299A5E7A5991C2A492A1C4C7241
:1005400001724C304A4D4D303048784830BC625AC8
:10055000463D3E494949007E0101017E2A2A2A2A58
:100560002A44445F444440514A444040444A514034
:100570000000FF0103E080FF000008086B6B0836F5
:1005800012362436060F090F060000181800000066
:100590001010003040FF0101001F01011E00191D55
:1005A0001712003C3C3C3C0000000000F0F89C8E20
:1005B0008783878E9CF8F00000FEFF03030303038C
:1005C000070EFCF80000FEFF0303030303070EFC05
:1005D000F80000FFFF00000000000000FFFF000027
:1005E000FEFF8383838383C7EE7C380000F8FC0E14
:1005F00007030303070EFCF800003F7FE0C0808084
:10060000C0E07F3FFFFF01010101010101FFFF0089
:1006100000FFFF0C0C0C0C1C3E77E3C100007FFFB9
:10062000C0C0C0C0C0E0703F1F00001F3F70E0C0EE
:10063000C0C0E0703F1F00007FFFC1C1C1C1C1E366
:10064000773E1C00001F3F70E0C0C0C0E0703F1F3D
:10065000000000000001FFFF01000000D5F08D1434
:10066000A1C881CFD9F1AF20003FFFFFFC400000BF
:100670000289995491955556A99D9555A99559D496
:1006800091400000023FFFFFFCFFFF10424F4F4D23
:10069000212052554D424C452120464C4153482182
:1006A00000FFFF0D01FFFF0D00FFFF10416E2065F1
:1006B00078706C6F73696F6E20736F6D65776865A6
:1006C00072652077697468696E2074686520636953
:1006D000747920726F636B7320796F75722061700B
:1006E0006172746D656E742100FFFF1041206675A4
:1006F0007279206F662063617220616C61726D7324
:100700002C20666C6173686573206F66206C696766
:1007100068742C2073637265616D7320616E642050
:1007200079656C6C7320636F6D652066726F6D20E8
:100730006F75747369646520796F75722077696E5F
:10074000646F772E00FFFF0D00FFFF10416E6F7486
:10075000686572206578706C6F73696F6E20726F58
:10076000636B732074686520636974792E20546804
:1007700069732074696D652C206974207365656DDB
:100780007320636C6F7365722E00FFFF10596F75D5
:10079000722067757420696E7374696E6374206962
:1007A0007320746F2072756E20646F776E2074688A
:1007B000652073746169727320616E6420696E7460
:1007C0006F20746865206F6C642066616C6C6F7557
:1007D00074207368656C7465722E0001A802FF575F
:1007E000616974206974206F75740052756E20649D
:1007F0006F776E2073746169727300596F75722020
:10080000686561727420697320706F756E64696EBB
:10081000672E2054686572652069736E27742061A5
:10082000206D6F6D656E7420746F206C6F73652E14
:1008300000021D063A4974276C6C2070726F6C6C54
:10084000792073746F700052756E20646F776E201C
:1008500073746169727300416E6F746865722065AC
:1008600078706C6F73696F6E20616E6420666C6166
:100870007368206F66206C69676874206B6E6F63A5
:100880006B7320796F75206F666620796F757220A3
:10089000666565742E20596F7572206561727320CC
:1008A00072696E672E00FFFF10596F7572206170BC
:1008B0006172746D656E74206275696C64696E67CF
:1008C0002069732068697420627920736F6D657484
:1008D00068696E6720616E64206973206465737453
:1008E000726F7965642E20596F75206D616E616736
:1008F0006520746F20737572766976652C20627539
:100900007420796F752061726520747261707065F2
:100910006420696E20727562626C652E00FFFF00B4
:100920004D6179626520736F6D656F6E65207769C3
:100930006C6C20636F6D65207265736375653F2015
:10094000596F752068656172206D6F7265206578DA
:10095000706C6F73696F6E732E20546865206368C6
:10096000616E6365206973206265636F6D696E6790
:10097000206C65737320616E64206C657373206CEA
:10098000696B656C792E0A00FFFF10596F75207234
:10099000756E20646F776E2074686520737461696A
:1009A000727320696E746F207468652062756E6B57
:1009B000657220646F776E2062656C6F772E2054AD
:1009C000776F206F74686572732068616420746843
:1009D000652073616D65206272696768742069645F
:1009E00065612E00FFFF10416E6F746865722066AE
:1009F0006C617368206F66206C696768742066722A
:100A00006F6D2075702074686520737461697263FE
:100A100061736520616E64206578706C6F73696FB7
:100A20006E20726F636B732074686520736D616CE8
:100A30006C20726F6F6D2E204974206D6967687429
:100A40002062652074696D6520746F20636C6F731C
:100A5000652074686520646F6F722E00042E056037
:100A6000436C6F736520446F6F7200446F6E277420
:100A700020436C6F736500596F75206665656C2047
:100A800062616420666F7220796F7572206E65698D
:100A90006768626F72732077686F206D696768742A
:100AA000206265206F6E20746865697220776179B5
:100AB00020646F776E2E00FFFF104A7573742061FB
:100AC0007320796F7520737461727420636C6F7317
:100AD000696E672074686520646F6F722C20736F75
:100AE0006D656F6E6520706C6561647320776974E5
:100AF0006820796F7520746F206C65742074686548
:100B00006D207468726F7567682E202248656C705E
:100B10002120506C6561736521204C6574206D65E2
:100B200020696E212200FFFF10596F7520646563F4
:100B300069646520746F206C6574207468656D202D
:100B40007468726F75676820616E642070726F6D73
:100B500070746C7920636C6F7365207468652064B1
:100B60006F6F722E00FFFF1053756464656E6C79B1
:100B70002C206F6E65206C617374206578706C6FCB
:100B800073696F6E20706F756E6473207468652072
:100B9000736D616C6C20726F6F6D2C20616C6D6F6A
:100BA0007374206B6E6F636B696E67206576657218
:100BB000796F6E65206F7665722E2054686520709F
:100BC0006F77657220676F6573206F757420616E33
:100BD00064206974206265636F6D65732071756947
:100BE00065742E00FFFF0505D5FFFF10596F7520B6
:100BF0006865617220736F6D656F6E6520736372D7
:100C0000616D626C696E6720646F776E20746865D1
:100C10002073746169727320616E642072756E2036
:100C2000696E746F2074686520726F6F6D21205437
:100C30006865792070726F6D70746C7920636C6F69
:100C400073652074686520646F6F7220616E642024
:100C50006C6F636B2069742E00FFFF0504DC05D503
:100C60000000576169740044696500596F7520611F
:100C7000726520696E2061206461726B20726F6FF3
:100C80006D2E205468657265206973206E6F7468DC
:100C9000696E6720746F20646F2E205468657265DA
:100CA00020617265206E6F206974656D732E20540B
:100CB000686520646F6F72206973206A616D6D656D
:100CC000642E00FFFF1052756E6E696E6720646FB0
:100CD000776E20746865207374616972732C207953
:100CE0006F75206F7665726865617220736F6D65D0
:100CF0006F6E65207769746820616E206F70656E15
:100D00002061706172746D656E7420646F6F722003
:100D10006F6E207468652070686F6E652E20222EBD
:100D20002E4E6F20706C65617365212053746F7057
:100D300020626F6D62696E67212200FFFF10596F9C
:100D4000752064656369646520746F2073746F70C7
:100D500020616E64206561736564726F70206265E6
:100D600068696E642074686520646F6F722E205409
:100D700068652066616C6C6F7574207368656C744F
:100D80006572206973207665727920636C6F736574
:100D90002C20616E6420796F75207468696E6B20F9
:100DA000796F752063616E206461727420696E20B2
:100DB000717569636B6C792E00FFFF10222E2E492E
:100DC00020616D20696E20746865203331342062A3
:100DD00075696C64696E672E2049206861766520AC
:100DE0006E6F7420657661637561746564207965E2
:100DF000742122204576616375617465643F2054D7
:100E000068697320697320766572792063757269E9
:100E10006F75732E2E2E00FFFF10225965732C2044
:100E20004920616D20746865206F6E6C79206F6E4B
:100E30006520686572652E20446F20796F75206883
:100E40006176652061206C6F636B3F2E2E74686144
:100E500074206D69676874206A75737420626520F8
:100E600061207265666C656374696F6E2E2E222038
:100E700041206C6F636B3F20576861742069732059
:100E8000676F696E67206F6E3F00FFFF10537564D8
:100E900064656E6C792C20796F75206665656C20B1
:100EA0006120737472616E67652074696E676C6926
:100EB0006E672073656E736174696F6E2E2054685F
:100EC000656E2069742073746F70732E20596F756E
:100ED00020617265206E6F7720696E206120636FDC
:100EE0006D706C6574656C792064696666657265A1
:100EF0006E74206C6F636174696F6E212048756831
:100F00003F00FFFF10537472616E6765206D656E60
:100F100020617265207374616E64696E6720616C14
:100F20006C2061726F756E64206120726F6F6D2E20
:100F30002022446F6E2C20796F75722068756D6168
:100F40006E20666F726D206C6F6F6B7320706572B0
:100F50006665637421204920776F756C646E277411
:100F6000206368616E67652061207468696E67211F
:100F70002200FFFF1022486572652C206C657420EA
:100F80006D652073686F7720796F7520746F207995
:100F90006F7572206272696467652E2220596F75C1
:100FA0002074727920746F20706C617920616C6F8D
:100FB0006E67206173207468657365207374726155
:100FC0006E6765206D656E20617265206361727267
:100FD00079696E672077686174206C6F6F6B73201E
:100FE0006C696B65206120776561706F6E2E00FF04
:100FF000FF10576F772120596F7520617265206E41
:101000006F77206120737061636573686970206316
:1010100061707461696E21204E6F206F6E65206B68
:101020006E6F777320796F7572207265616C2069BD
:1010300064656E7469747920616E64207468657982
:10104000207468696E6B20796F752061726520610C
:101050006E20616C6C20706F77657266756C206CA9
:10106000656164657221000A550CA4426F6D6220AF
:101070006D6F72650053746F7020426F6D62696EA0
:101080006700225369722C20776520617265207792
:10109000616974696E67206F6E206F726465727328
:1010A0002E20576520617265206D616B696E672027
:1010B000676F6F642070726F677265737320696EFB
:1010C0002064657374726F79696E672065617274EC
:1010D00068207265736964656E74732E2200FFFF69
:1010E000102257656C6C2C20737461727420626FCF
:1010F0006D62696E67206D6F7265207468656E2120
:101100002220796F75206F726465722E20497420D9
:101110006973206E6F74206C696B6520796F752020
:1011200063616E20676F206261636B206E6F772E44
:10113000204D696768742061732077656C6C20624C
:101140006C6F7720757020796F7572206F776E20C5
:10115000706C616E657421000B240DC1323030302B
:1011600020426F6D6273003430303020426F6D6208
:101170007300225965732073697221205269676870
:101180007420617761792120486F77206D616E79D5
:10119000206D6F726520626F6D62732073686F756A
:1011A0006C642077652073656E643F2200FFFF103A
:1011B0002254686174207365656D73206C696B657A
:1011C0002061206D6F726520726561736F6E616260
:1011D0006C6520616D6F756E74206F6620626F6D37
:1011E00062732C20736972222E20596F75206172F0
:1011F00065206861707079207769746820322C30BE
:10120000303020626F6D62732E20342C30303020ED
:101210006A757374207365656D73206C696B6520E6
:10122000746F6F206D616E792E00FFFF050E3BFF1E
:10123000FF102249206E65656420746F206465701C
:101240006172742074686520736869702E2220456D
:10125000766572796F6E65207365656D7320636F57
:101260006E66757365642E20224578637575757397
:1012700065206D653F22207361797320616E6F7404
:10128000686572206D616E206F6620756E6B6E6F83
:10129000776E206A6F622064657363726970746927
:1012A0006F6E2E00FFFF1022576879206F6E206549
:1012B000617274682E2E69206D65616E2E2E7370BA
:1012C00061636520776F756C6420796F7520646F3A
:1012D00020746861743F222073617973207468659B
:1012E000206D616E2E002DC82E4E466F72676F7492
:1012F00020736F6D657468696E67004C6566742055
:101300005456206F6E00596F7520686176652074A1
:101310006F20717569636B6C79206D616B652075E9
:101320007020616E206578637573652E00FFFF1075
:1013300022576169743F2057687920776F756C6414
:101340002077652073746F7020626F6D62696E67BD
:10135000213F2220736179732074686520626F6D6C
:1013600062696E6720636F6D6D616E646572207770
:101370006F726B6572206775792E204865206C6FDF
:101380006F6B7320766572792070757A7A6C6564FC
:101390002E00FFFF102242656361757365204920AE
:1013A000616D20746865206361707461696E2120CD
:1013B0005448415453205748592122205468697396
:1013C000206D616B65732070657266656374207350
:1013D000656E736520746F2065766572796F6E65D2
:1013E00020696E2074686520726F6F6D20616E6475
:1013F000206E6F206F6E652061736B73206D6F724E
:1014000065207175657374696F6E732E000BA63D50
:1014100097446570617274207368697000506C6FD6
:101420007420636F7572736520736F6D657768657F
:10143000726500576861742077696C6C20796F75EC
:1014400020646F206E6578743F00FFFF1022342CFB
:1014500030303020626F6D62733F20576F772E20DF
:10146000546861742069732061206C6F74206F660A
:1014700020626F6D62732E204F6B61792C2074682F
:1014800061742077696C6C2074616B6520612066E3
:101490006577206D696E757465732E2220596F759E
:1014A00020617265207665727920636F6E74656E57
:1014B0007420776974682074686174206E756D6239
:1014C00065722E00FFFF10224F6B61792E20416C58
:1014D0006C206F662074686F736520626F6D627335
:1014E00020776572652064726F707065642E204984
:1014F00074206973207665727920736D6F6B6579DE
:10150000206F6E206561727468206E6F772C2220C8
:101510007361797320736F6D6520677579207768C3
:101520006F2069732070726F6261626C79207468D9
:101530006520626F6D62696E6720636F6D6D616EAD
:101540006465722E000F242CF5476F20746F2063A2
:1015500061707461696E277320206F6666696365C8
:10156000004C6F6361746520636F6666656500415A
:101570006C6C206F66207468697320626F6D62699D
:101580006E67206973206861726420776F726B2EBA
:1015900020596F752064656369646520746F2074D9
:1015A000616B65206120627265616B2E0034A70F4C
:1015B000A4507573682072656420627574746F6ED0
:1015C0000055736520636F6D707574657220746863
:1015D000696E6700546865206361707461696E2785
:1015E00073206F6666696365206C6F6F6B73207222
:1015F00065616C6C7920626F72696E672E20546829
:1016000065726527732061206269672072656420B6
:10161000627574746F6E20616E64206120636F6DFB
:101620007075746572207468696E672E00FFFF1014
:1016300054686520636F6D7075746572206861739E
:1016400020612073637265656E2074686174207315
:1016500061797320224C6F636B6564222E2054687D
:1016600065726520697320612070617373776F7292
:10167000642070726F6D70742E0010B2103D312DA9
:10168000322D332D342D3500342D32332D33393175
:101690002D3300596F752064656369646520746F2C
:1016A0002067756573732074686520706173737744
:1016B0006F72643F205768696368206F6E652069A8
:1016C000732069743F0034A70FF15075736820527E
:1016D000656420427574746F6E005472792061677E
:1016E00061696E0054686520636F6D707574657212
:1016F00020737065616B7320696E20612074657260
:101700007269626C6520766F6963653A2022455282
:10171000524F5221204552524F5221204841434BB3
:10172000455220414C455254212220546861742076
:101730007761736E27742069742100110F31F6529E
:1017400065616420656D61696C004F70656E206332
:101750006861742077696E646F77002257656C63E7
:101760006F6D6520746F20636F6D70757465722185
:1017700020596F752068617665206D61696C212242
:101780002E20546865726527732061206368617438
:101790002077696E646F7700118612235265616449
:1017A000206669727374206F6E65005265616420F3
:1017B0007365636F6E64206F6E6500546865726553
:1017C000206172652074776F20656D61696C732E7E
:1017D000205468657920626F74682068617665209E
:1017E00022736563726574222061732074686520BA
:1017F0007375626A656374206275742064696666D5
:101800006572656E742073656E646572732E00FF79
:10181000FF1049742072656164733A202244656147
:1018200072206361707461696E2E20576520686153
:10183000766520646574656374656420616E2069F3
:101840006E7365637572652070617373776F726410
:1018500020666F7220796F7572206163636F756E99
:10186000742E20596F75206D757374206368616ED6
:1018700067652069742077697468696E2035206413
:101880006179732E2220596F7520646563696465E0
:1018900020746F20726561642074686520736563CD
:1018A0006F6E6420616E797761792E002F9A12A98C
:1018B000436C69636B206C696E6B00446F20736FBF
:1018C0006D657468696E6720656C73650049742086
:1018D00072656164733A20224865726520697320DD
:1018E000746865206C696E6B20746F207468652065
:1018F000636F6E74726F6C2073797374656D2E20D4
:10190000426F6F6B6D61726B2069742074686973CC
:101910002074696D6520736F20796F752073746F03
:101920007020666F7267657474696E6720697421D0
:101930002200FFFF10456E6F756768206F66207488
:101940006861742064756D6220636F6D7075746575
:10195000722E20596F752067657420757020616E36
:1019600064206C6F6F6B2061726F756E642E204502
:101970006C657661746F723F2059455320504C4519
:101980004153452120596F7520656E74657220742E
:10199000686520656C657661746F722E00138F32F6
:1019A0002050757368202245312200476F20746FE4
:1019B0002062726964676500596F752073656520E0
:1019C0003120627574746F6E20696E2074686520B2
:1019D000656C657661746F72206C6162656C6564BC
:1019E00020224531222E20596F752063616E2061BF
:1019F0006C736F206A7573742077616C6B206F75E0
:101A00007420616E6420676F20746F207468652095
:101A10006272696467652E00FFFF10546865736524
:101A200020656C657661746F7273206172652077D2
:101A3000656972642E20546865792063616E206F39
:101A40006E6C7920676F206265747765656E2074AF
:101A5000776F20666C6F6F72732E205468656E20EE
:101A6000796F7520676574206F75742C20616E64C2
:101A70002074616B6520616E6F746865722E2054EE
:101A80006865736520737061636520616C69656E5C
:101A90007320686176656E277420646973636F765E
:101AA00065726564202064697265637420656C6585
:101AB0007661746F722073657276696365210014B4
:101AC00094329E453220456C657661746F72004594
:101AD0003420456C657661746F7200596F752061B2
:101AE000726520696E2074686520656C6576617426
:101AF0006F722031206C6F62627920626574776545
:101B0000656E2074776F20656C657661746F727393
:101B10002E20436F6E667573696E672E001505275C
:101B2000DD4C6576656C203130004C6576656C2047
:101B30003139005468697320656C657661746F7221
:101B40002063616E206F6E6C7920676F20746F2048
:101B50006C6576656C203130206F72206C6576651F
:101B60006C2031392E20596F752068617665206EA2
:101B70006F2069646561207768617420746865739B
:101B80006520706C61636573206172652E00FFFFD4
:101B900010596F75207265616368204C6576656CBD
:101BA0002031302E20546865726520617265206195
:101BB0002062756E6368206F66206E6F6E2D64659F
:101BC0007363726970742068616C6C776179732ECD
:101BD00020596F752064656369646520746F20689F
:101BE00061766520736F6D652066756E2061732068
:101BF0006E6F206F6E652063616E20717565737402
:101C0000696F6E20796F757220617574686F726983
:101C100074792E20596F7520737472757420646FF7
:101C2000776E2074686520636F727269646F722EBC
:101C30000017A3164053686F7665206361727400C5
:101C40004B6565702077616C6B696E6700596F75C5
:101C500020636F6D65206163726F737320736F6DA6
:101C6000652070656F706C6520776F726B696E6749
:101C700020646F776E206120737461697277656C80
:101C80006C2E20412063617274207769746820682B
:101C9000656176792065717569706D656E7420680F
:101CA0006F6C64732074686520646F6F72206F704E
:101CB000656E2061742074686520746F702E2054E6
:101CC000656D7074696E672E0016B419A25468723F
:101CD0006F7720726F636B004B6565702077616C66
:101CE0006B696E6700596F7520636F6D6520616366
:101CF000726F737320736F6D65206372617070799A
:101D000020726F636B206F6E206120706564657355
:101D100074616C2E20497427732066726F6D207475
:101D2000686569722064756D62206D6F6F6E206FDB
:101D30007220736F6D657468696E672E00FFFF1007
:101D4000596F75207069636B207570207468652009
:101D50006769616E74206D6F6F6E20726F636B20A8
:101D6000616E64206875726C2069742061742074DF
:101D700068652077696E646F772E204974207368D8
:101D800061747465727320656173696C7920616E2A
:101D900064207375636B7320657665727974686906
:101DA0006E672C20696E636C7564696E6720796F4D
:101DB000752C20696E746F2073706163652E00FF4F
:101DC000FF004D696E696D616C2063617375616CB4
:101DD0007469657320726573756C746564206173D2
:101DE0002074686520666C6F6F7220776173207352
:101DF00065616C6564206F66662028697420776170
:101E0000732072656C61746976656C7920616E20EF
:101E1000756E696D706F7274616E7420666C6F6F31
:101E20007220616E79776179292E0A00FFFF1054C4
:101E3000686F736520677579732077696C6C206EA5
:101E4000657665722073656520697420636F6D69BE
:101E50006E672120596F752073686F7665207468EE
:101E600065206361727420646F776E2061732069EE
:101E70007420736D617368657320646F776E20746E
:101E80006865207374616972732E20596F75206CB8
:101E90006175676820617320796F7520686561726C
:101EA000207061696E66756C2063757273696E6708
:101EB00020617320697420706C6F777320696E7471
:101EC0006F2074686520776F726B6572732E205770
:101ED00068696C6500FFFF107468697320776F751F
:101EE0006C642068617665206265656E2075737527
:101EF000616C6C7920756E6576656E7466756C2C98
:101F00002074686579207765726520776F726B69D8
:101F10006E67206F6E20746865206D61696E206C3D
:101F200069666520737570706F727420706F776565
:101F30007220737570706C792E205468652063610F
:101F400072742073657665726564207468652070AC
:101F50006F776572206361626C6520616E642061D9
:101F60006C6C206F6620746865206F787967656E89
:101F70002073797374656D73207475726E65642057
:101F80006F66662E00FFFF0049742077617320752D
:101F90006E6E6F74696361626C6520666F7220712A
:101FA0007569746520736F6D652074696D652C208B
:101FB000627574206576656E7475616C6C792061EC
:101FC0006C6C206F662074686520616C69656E7347
:101FD0002028696E636C7564696E6720796F75215E
:101FE000292073756363756D656420746F20746850
:101FF00065206C61636B206F66206F787967656E12
:102000002E20596F75207361766564207468652091
:102010006461792C206163636964656E746C792EE8
:1020200020536F7274206F662E0A00217A1A405076
:102030006C617920776974682070616E656C004B03
:102040006565702077616C6B696E6700596F7520EC
:10205000736565206120636F6D70757465722070A3
:10206000616E656C207468617420736179732057A8
:102070004541504F4E5320434F4E54524F4C2053E6
:10208000595354454D2E2049742077616E74732046
:10209000612070617373776F726420627574207948
:1020A0006F752068617665206120676F6F642069B5
:1020B00064656120776861742069742070726F6252
:1020C00061626C792069732E001AAD1A40547572E2
:1020D0006E206C656674004B6565702077616C6B73
:1020E000696E67005468697320636F727269646F08
:1020F00072207365656D7320656E646C6573732EF5
:102100002052616E646F6D2068616C6C77617973C9
:102110002061726520746F20796F7572206C65661E
:10212000742E204973207468652067616D65207383
:102130007475636B3F001D4D1B08417578696C69B0
:1021400061727920526F6F6D004B65657020776109
:102150006C6B696E67004120626F72696E672073F5
:102160006F756E64696E6720726F6F6D2069732082
:10217000746F20796F7572206C6566742E204265CD
:102180007374206B6565702077616C6B696E672E68
:10219000001C891BC353746F7261676520526F6F97
:1021A0006D004B6565702077616C6B696E670053DD
:1021B0006F6D6520736F7274206F662073746F7219
:1021C00061676520726F6F6D20697320746F20796D
:1021D0006F7572206C6566742E00FFFF1054686581
:1021E0002077616C6C20686173206C69747465720F
:1021F000616C6C79206E6F207061747465726E20F2
:10220000617420616C6C2E20596F7520737461723B
:1022100065206F666620696E746F207768697465E3
:10222000207370616365206E6F7468696E676E6598
:1022300073732E20596F752066696E642074686907
:102240007320736F6F7468696E672E001C211B51B9
:1022500055707661746F7200537461726520617499
:102260002077616C6C005468697320646F6F722012
:102270006C6561647320746F20736F6D6574686939
:102280006E672063616C6C656420616E20227570DE
:102290007661746F72222E204D61796265206974B7
:1022A00020676F65732075703F00FFFF10596F75D1
:1022B00020656E746572207468652075707661742F
:1022C0006F722E20497420686173206E6F206275D2
:1022D00074746F6E7320616E6420696D6D656461E6
:1022E00074656C792074616B657320796F752074E7
:1022F0006F2074686520656C657661746F7220313B
:10230000206C6F62627920726F6F6D2E00FFFF0587
:1023100014361CE91B08547279206F6E20686174B2
:10232000004C6561766520726F6F6D00596F752086
:10233000656E746572207468652073746F7261676E
:102340006520726F6F6D2E20546865726520697309
:10235000206E6F7468696E6720627574206861749E
:1023600073212048756E64726564732120576F77FE
:102370002100FFFF10596F7520747279206F6E2055
:10238000612072616E646F6D206861742E20596FD8
:1023900075206C6F6F6B20696E20746865206D69A5
:1023A00072726F722E204E61682C206E6F742079CD
:1023B0006F7572207374796C652E20596F7520705B
:1023C00075742074686520686174206261636B2E87
:1023D00000FFFF051C891AAD1DD94C65617665208B
:1023E000726F6F6D004D61736820627574746F6EEB
:1023F00073004C6F747320616E64206C6F74732073
:102400006F6620756E6C6162656C656420627574C0
:10241000746F6E7320616E6420626C696E6B7920DC
:102420006C69676874732E205468657265206973DF
:102430002061207669657773637265656E206F66CB
:1024400020656172746820616E6420736869702011
:1024500073656375726974792063616D6572617308
:102460002E00FFFF10596F752068697420616C6C35
:102470002074686520627574746F6E7320796F754F
:102480002063616E2066696E642E20526564206F41
:102490006E65732C2079656C6C6F77206F6E657339
:1024A0002C20626C61636B206F6E65732C206576E7
:1024B000656E20612066657720677265656E206FA6
:1024C0006E65732100FFFF10596F75206E6F746980
:1024D0006365207468617420656172746820697333
:1024E000207374617274696E6720746F20676574FD
:1024F00020617766756C6C79206C61726765206FFE
:102500006E207468652076696577207363726565EF
:102510006E2E205468652073686970206973206589
:1025200076656E2074697070696E6720343520643A
:102530006567726565732E00FFFF104F6820746831
:102540006973206973206E6F7420676F6F64212038
:102550005468652073686970206973207370696EB0
:102560006E696E67206F7574206F6620636F6E747E
:10257000726F6C21204F6E65206F662074686573E2
:102580006520627574746F6E7320776173206E6F4F
:1025900074206120676F6F64206F6E6520746F20F8
:1025A000707573682E00FFFF10596F75207374618A
:1025B000727420746F2073656520736F6D6520647D
:1025C000756D62206369747920796F7520646F6E10
:1025D0002774207265636F676E697A65206F6E205D
:1025E00074686520766965772073637265656E200F
:1025F000617320796F752067657420636C6F7365F4
:102600007220616E6420636C6F73657220746F203A
:102610007468652067726F756E642E00FFFF10533B
:10262000756464656E6C792C2074686520736869C4
:10263000702073746565727320616E6420637261CB
:102640007368206C616E647320696E746F20612002
:102650006E6561726279206C616B65207769746860
:102660002061206769616E74207369676E207468E9
:10267000617420736179732022506F6C69636520E7
:10268000547261696E696E67204C616B65222E0021
:10269000FFFF1041732074686520736869702062C1
:1026A0006F627320696E207468652077617465724B
:1026B0002C2068756E6472656473206F6620706F7D
:1026C0006C69636520626F61747320737761726DEA
:1026D0002074686520737061636520736869702E6B
:1026E00020596F7520736565207468656D20656E6F
:1026F000746572206F6E20746865207365637572EF
:102700006974792063616D6572617320616E642004
:102710006172726573742074686520616C69656E9E
:10272000732E00FFFF104120706F6C696365206F8E
:1027300066666963657220656E746572732074687D
:102740006520617578696C6961727920726F6F6D4F
:102750002E20596F752074727920746F20657870FF
:102760006C61696E2C2062757420796F75206172BE
:102770006520617272657374656420617320616E97
:1027800020616C69656E20666F7220646573747277
:102790006F79696E67206D616E7920636974696510
:1027A000732C2061206D616A6F72206372696D65A0
:1027B0002E002129000057616974004469650059A1
:1027C0006F7520617265206E6F7720696E206A6177
:1027D000696C2E205468657265206973206E6F20C5
:1027E0006573636170652E204E6F7720796F752059
:1027F0006A757374206861766520746F20776169EB
:10280000742E00FFFF10596F7520656E746572207D
:10281000696E2074686520736563726574207061E9
:102820007373776F72642028312D322D332D342D40
:10283000352920616E642070757368206576657235
:10284000792073696E676C6520776561706F6E7350
:1028500020627574746F6E2E20486F77657665728E
:102860002C20706C616E65742045617274682077ED
:102870006173207374696C6C20746865206C61737B
:102880007400FFFF106C6F636174696F6E2077696D
:102890007468696E20746865207461726765746914
:1028A0006E672073797374656D2E20596F75206182
:1028B0006C736F206669726564206F666620746849
:1028C0006520706C616E65742064657374727563E5
:1028D00074696F6E20626F6D622E2045617274683C
:1028E000206973206E6F772064657374726F7965E9
:1028F000642E20596F75206865617220736F6D6555
:1029000020737472616E676520726174746C696E95
:102910006720736F756E647320696E20746865201C
:10292000626F6D62206261792E00240E230D496E64
:1029300076657374696761746520626F6D62206289
:1029400061790049676E6F7265206974005468652B
:102950002070616E656C20616C736F207361797398
:1029600020746865726520697320736F6D652073CC
:102970006F7274206F66206A616D2E204120636F34
:10298000756E7420646F776E20636C6F636B207458
:1029900069636B732E00FFFF10596F7520666967BE
:1029A0007572652069742073686F756C6420626548
:1029B00020736F6D656F6E6520656C736573207035
:1029C000726F626C656D20616E797761792E205926
:1029D0006F75207374617274207374727574696E8C
:1029E0006720646F776E207468652068616C6C2066
:1029F00070726574656E64696E67206C696B6520C2
:102A00006E6F7468696E672068617070656E65646A
:102A10002E00FFFF00546865206A616D6D656420BB
:102A2000626F6D62206578706C6F64657320616E93
:102A3000642064657374726F7973207468652073A1
:102A40006869702E204E6F206F6E652077696E73F7
:102A50002E20427574206174206C6561737420743B
:102A600068657920776F6E2774206265206D6573C5
:102A700073696E672077697468206F746865722067
:102A8000706C616E65747320616E7974696D652018
:102A9000736F6F6E2E0A00FFFF10596F7520656E01
:102AA0007465722074686520626F6D62206261795E
:102AB00020616E64206E6F74696365206F6E65209F
:102AC0006F662074686520626F6D6220636F6E6E42
:102AD0006563746F72207468696E67732069732010
:102AE00064616D616765642E20497420697320708C
:102AF000726576656E74696E672074686520626FB2
:102B00006D622066726F6D20656E746572696E67A6
:102B100020746865206C61756E6368696E672074E7
:102B20007562652E205468617420646F6573206E31
:102B30006F74206C6F6F6B20676F6F642E00253988
:102B400025C648697420776974682068616D6D6571
:102B500072004B69636B2069740050656E64696E26
:102B60006720646F6F6D206177616974732E2059DF
:102B70006F752073656520612068616D6D65722ECB
:102B800020596F7520616C736F20617265207072BF
:102B90006574747920676F6F64206174206B69635A
:102BA0006B696E67207468696E67732C20736F2081
:102BB00074686572652773207468617420746F6F20
:102BC0002E00FFFF10596F752068697420746865C6
:102BD00020626F6D62207769746820612068616D82
:102BE0006D65722E2054686520636C6F636B207373
:102BF000746172747320636F756E74696E6720649C
:102C00006F776E206174206578636573736976658C
:102C10002073706565642E205568206F68212059E7
:102C20006F752064616D61676564207468652074E8
:102C3000696D6520636972637569742120546869E0
:102C400073206973206E6F7420676F6F642E00FFAE
:102C5000FF10596F75206B69636B20697420746F66
:102C60002073656520776861742068617070656E97
:102C7000732E2054686174207365656D7320746FC2
:102C8000206861766520646F6E65207468652074C5
:102C90007269636B2C20616E642074686520626FBA
:102CA0006D62206C6F61647320696E746F2074684C
:102CB00065206C61756E6368657220616E64206664
:102CC000697265732E204974206578706C6F646535
:102CD0007320696E2073706163652E0026D716B469
:102CE0004C616E64206F6E206D6F6F6E0054687261
:102CF0006F7720726F636B0054686572652773206D
:102D00006120736D616C6C207370616365637261C7
:102D10006674206865726521204561727468206957
:102D20007320676F6E652C206275742074686572FD
:102D300065277320616C7761797320746865206DF5
:102D40006F6F6E3F20416E6F746865722064756DA1
:102D50006220726F636B20697320686572652E0054
:102D6000FFFF10596F75206465636964652074689E
:102D700065206D6F6F6E20697320796F7572206E9C
:102D80006578742064657374696E6174696F6E2E02
:102D900020596F75206C616E64206F6E20746865B9
:102DA000206D6F6F6E2C206E6F77207370696E6E62
:102DB000696E672077696C646C79206F7574206F19
:102DC0006620636F6E74726F6C2C2064756520745E
:102DD0006F20746865206C61636B206F66206120D2
:102DE000706C616E65742065617274682E00FFFFFF
:102DF000005468696E67732077657265206B696E31
:102E000064206F66206F6B61792C20627574207965
:102E10006F752068617665206E6F20667269656ED9
:102E20006473206F6E20746865206D6F6F6E2E2046
:102E30004F766572207468652079656172732C2005
:102E40006974206576656E7475616C6C7920637247
:102E5000617368657320696E746F20746865207390
:102E6000756E2E200A00FFFF10596F752072656184
:102E70006368206C6576656C2031392E2054686556
:102E800020736D656C6C206F6620636F6666656588
:102E9000206C696E676572732061732074686520A9
:102EA0006F6E6C79207468696E67206F6E2074682D
:102EB0006973206C6576656C2061707065617273F2
:102EC00020746F20626520612063686561702065F1
:102ED0007370726573736F20636172742E0028B60D
:102EE0001C21436F666665652043617274005570EE
:102EF0007661746F7200596F752073656520616E1D
:102F00002075707661746F7221205468616E6B2039
:102F1000676F642E20416C736F2C20796F7520636E
:102F2000616E20676F20757020746F207468652053
:102F3000657370726573736F20636172742E00FF26
:102F4000FF10224C6F6F6B2C2049206B6E6F772027
:102F5000776861742068617070656E65642C2220EA
:102F600074686520636F666665656D616B65722068
:102F7000736179732E0028552941446F6E277420A0
:102F8000666F6C6C6F7700466F6C6C6F7720636F49
:102F9000666665656D616B65720022596F75207795
:102FA000696C6C206E65656420746F20666F6C6C54
:102FB0006F77206D65207468726F7567682074681C
:102FC000697320646F6F722E2200FFFF10596F75B6
:102FD00020666F6C6C6F772074686520636F66661F
:102FE00065656D616B6572207468726F75676820C6
:102FF0006120737472616E676520636F72726964B9
:103000006F722E204576656E7475616C6C792C201C
:10301000796F75207265616368206120736D616CE2
:103020006C20676172616765207769746820612030
:103030006C6974746C652073706163657368697022
:103040002E00FFFF1050757368207468652073654B
:103050006C66206465737472756374206275747431
:103060006F6E20616E6420686F7020696E21205938
:103070006F75206C616E64206F6E2045617274689C
:1030800020696E20612072656D6F7465206C6F63BE
:103090006174696F6E2E00FFFF10536865207361C5
:1030A00079732C20226E6F77206861766520746FAB
:1030B0002066756C66696C6C20594F5552207061A2
:1030C0007274206F6620746865206465616C2122CB
:1030D0002057686174206465616C213F20224D6136
:1030E000727279206D65206E6F772122207368657A
:1030F00020736179732E2055683F002AE12BA0448C
:103100006F6E2774206D6172727920686572004D50
:1031100061727279206865720053686520646F651A
:1031200073206C6F6F6B2076657279207072657496
:1031300074792E20416E6420736865206B6E6F7702
:103140007320686F7720746F206D616B6520636FEB
:10315000666665652E204275742069732074686107
:103160007420656E6F7567683F00FFFF10596F75BB
:1031700020686176652070726F76656E20796F7554
:103180007273656C6620746F2062652061207465BF
:10319000727269626C6520706572736F6E2E204664
:1031A0006F7220746861742C20692077696C6C20C0
:1031B0006368616E676520696E746F206D79207435
:1031C0007275652073656C6620616E642065786930
:1031D00074206D792068756D616E737569742E2029
:1031E0005568206F682E2E00FFFF0053686520741D
:1031F00072616E73666F726D7320696E746F206199
:10320000206769616E74206D6F6E737465722E2015
:1032100022596F7520617265206E6F77206D79205D
:103220006D65616C2122200A00FFFF10596F752027
:10323000646563696465207468617420796F7520C2
:103240006265747465722074616B65206164766177
:103250006E74616765206F66207468697320776893
:10326000696C6520796F752063616E2E204974202A
:10327000776F6E27742062652074686174206261C4
:10328000642E2E2E77696C6C2069743F00FFFF104E
:10329000596F752073617665642074686520646178
:1032A0007920616E6420676F742074686520676997
:1032B000726C2E2055682E2E7368652069732074F9
:1032C000616B696E67206F6666206865722068753D
:1032D0006D616E73756974212022596F7520686164
:1032E0007665205448524545204845414453206165
:1032F0006E642054454E2041524D533F212200FF21
:10330000FF0022596573206F6620636F75727365C5
:10331000204920646F2C206D79206E6577207370B2
:103320006F757365212049206C6F766520796F7504
:10333000212220416E642073686520676976657379
:1033400020796F752061206769616E7420313020AB
:1033500061726D206875672E2057656C6C2C206D2E
:1033600061796265206974276C6C20776F726B20BD
:103370006F757420736F6D65686F772E0A00FFFF9D
:103380001022536F2C2075682C2077686572652099
:1033900069732074686520636F66666565206D617A
:1033A0006B657220616761696E3F2220796F7520BD
:1033B00061736B2C206576657220736F20736C7956
:1033C0006C792E20225368652773206F6E206C6500
:1033D00076656C2031392C207369722E204531209E
:1033E000746F20453220746F204C31392E22001327
:1033F000140EBC476F20746F20656C657661746F26
:1034000072004E657665726D696E6400224F682C9D
:1034100020796561682C2069206B6E65772074685F
:10342000617422202877686174207468652068655B
:10343000636B2061726520616C6C206F662074681C
:103440006F736520646972656374696F6E733F2979
:1034500000FFFF1022492E7568682E2E666F726776
:103460006F7420736F6D657468696E672062616345
:103470006B206F6E2065617274682E22205468651F
:1034800020626F6D626572206C6175676873206180
:10349000732069662069742077617320736F6D658E
:1034A00020736F7274206F66206A6F6B652C2061C9
:1034B0006E642064726F7073203130303020626F20
:1034C0006D6273206F6E20796F75722063697479F5
:1034D0002E00FFFF050EBCFFFF1022492075686813
:1034E0002E2E2E6C65667420746865205456206FED
:1034F0006E2E2220796F752072656D61726B2E20A1
:1035000022596F752073616964206275696C646902
:103510006E67203331322C2072696768743F222035
:1035200074686520626F6D626572206775792061CD
:10353000736B732E204F682067726561742E00FFD5
:10354000FF1054686520626F6D626572206775793F
:10355000207072657373657320612062756E636895
:10356000206F6620627574746F6E7320616E6420C4
:103570006120766964656F206F6620796F757220AF
:103580006275696C64696E67206265696E67206444
:10359000657374726F7965642063616E2062652063
:1035A0007365656E206F6E206120736D616C6C2099
:1035B00073637265656E2E00FFFF10224F6B617999
:1035C0002C207369722E204E6963652063617463D9
:1035D000682E2049742773206F6666206E6F772EE1
:1035E0002220596F7520737461726520696E2064A2
:1035F000697362656C6965662E204D61796265202C
:10360000796F752073686F756C646E2774206861BC
:103610007665207361696420746861742E00FFFF11
:10362000050EBC303012A9536574206261636B775C
:103630006172647300446F20736F6D657468696EA6
:103640006720656C736500596F7520656E746572CF
:1036500020736F6D6520736F7274206F66206164D4
:103660006D696E697374726174696F6E20706F72C8
:1036700074616C2E20596F7520736565206120730D
:103680007472616E67652073657474696E67206318
:10369000616C6C656420227365776167652073795E
:1036A0007374656D20646972656374696F6E3A2026
:1036B000666F72776172642200FFFF10466F72209E
:1036C00066756E2C20796F75206368616E67652062
:1036D00074686520736577657220646972656374C8
:1036E000696F6E20746F20226261636B7761726410
:1036F00073222E20466F722061207768696C652CDA
:10370000206974206469646E2774207365656D2078
:10371000746F20646F20612077686F6C65206C6F18
:10372000742C20736F20796F7520707265737365C8
:103730006420746865205B2B5D206F6E2053657775
:103740006572205053492053657474696E67203147
:103750003030302074696D65732E00FFFF104120FA
:103760007465727269626C652072757368696E67E0
:1037700020736F756E6420636F756C6420626520C2
:10378000686561726420696E2077686174206C6F6F
:103790006F6B6564206C696B652061206261746881
:1037A000726F6F6D2E2042616420736D656C6C7357
:1037B00020616E64206461726B206C69717569644C
:1037C00020636F756C64206265207365656E20638D
:1037D0006F6D696E672066726F6D20756E646572BD
:1037E0002074686520646F6F722E00FFFF10536FA6
:1037F0006D652079656C6C696E6720636F756C64AC
:1038000020626520686561726420696E2074686555
:103810002064697374616E63653A20224F48204DBD
:103820005920474F44212054484520544F494C4586
:103830005453204152452053455741474520474561
:103840005953455253212048495420544845204556
:103850004D455247454E43592053485554204F46F5
:10386000462122204D697373696F6E206163636F17
:103870006D706C69736865642100FFFF0512A9FF14
:10388000FF104974206A7573742073617973202264
:103890004D656574206D65206F6E204C3139202D8B
:1038A00043472200FFFF0510B20F24131443617039
:1038B0007461696E2773204F666669636500456CA5
:1038C000657661746F7200596F7520617265206F43
:1038D0006E20746865206272696467652E204C6F83
:1038E0007473206F662062757A7A696E6720616EE4
:1038F000642062656570696E672E20536F6D652068
:10390000626F6D62696E672E204F746865727769A9
:1039100073652C206E6F74206D75636820676F6906
:103920006E67206F6E2E00FFFF10596F7520726555
:1039300061636820656C657661746F72206C6F627C
:10394000627920342E20546865206F746865722077
:10395000656C657661746F722061707065617273F9
:1039600020746F206265206F7574206F66206F72FF
:103970006465722C20736F20796F752074616B659C
:1039800020746865206F6E6C7920776F726B696E3A
:1039900067206F6E6520746F204C352E00338F1CAE
:1039A0002154656C65706F727465722062757474F1
:1039B0006F6E0055707661746F7200596F7520617B
:1039C0007265206F6E204C352E205468657265201C
:1039D000697320616E2075707661746F7221205456
:1039E00068657265206973206A757374206120743C
:1039F000656C65706F7274657220686572652E20E3
:103A0000546865206F6E6520796F752061727269E8
:103A100076656420696E2E00FFFF10596F75206572
:103A20006E67616765207468652074656C65706F8A
:103A30007274657220636F6E74726F6C732062753E
:103A4000742062756D702074686520616C7469748F
:103A500075646520636F6E74726F6C732E20596F7E
:103A600075206172652073656E7420746F207468B0
:103A700065206C617374206C6F636174696F6E2074
:103A800075736564207365766572616C20666C6F12
:103A90006F727320646F776E3A2074686520626F6E
:103AA0006D62207368656C7465722E00FFFF10599B
:103AB0006F7520617265206E6F742073757265205A
:103AC000796F752061726520676C616420746F2066
:103AD0006265206261636B206F72206E6F742E20AE
:103AE000416C6C206F6620796F7572206672696513
:103AF0006E64732061726520686572652C20627542
:103B000074207468657265277320612070726F621B
:103B10006C656D20776974682074686520736865CA
:103B20006C74657220646F6F722100FFFF0505D50C
:103B3000FFFF105468697320626967207265642012
:103B4000627574746F6E20686173206E6F20746587
:103B50007874206F6E2069742E20497420636F750D
:103B60006C646E2774206265205448415420696D4E
:103B7000706F7274616E742C206F746865727769EF
:103B8000736520697420776F756C64206861766551
:103B900020736F6D6520736F7274206F662077617C
:103BA000726E696E67206F6E2069742E00FFFF10C1
:103BB000596F75206769766520746865206269674A
:103BC0002072656420627574746F6E206120707558
:103BD00073682E204E6F7468696E6720686170701C
:103BE000656E732E20596F75207075736820697427
:103BF00020616761696E206120636F75706C65205C
:103C00006D6F72652074696D65732E2057656C6CDD
:103C10002074686174207375636B732E00FFFF104E
:103C200053756464656E6C792074686520646F6F89
:103C300072206F70656E732E20536F6D656F6E65A9
:103C40002072757368657320696E2E20224341507F
:103C50005441494E21212120534F4D454F4E45207F
:103C600048415320494E4954494154454420544801
:103C7000452053454C462044455354525543542007
:103C800053455155454E4345212200FFFF10596FC2
:103C90007520737461727420746F2068656172207E
:103CA000612067726F77696E672072756D626C65EF
:103CB0002E204974206265636F6D6573206C6F758B
:103CC00064657220616E64206C6F756465722E206D
:103CD0002243616E277420796F75206A7573742092
:103CE00063616E63656C207468652073656C662023
:103CF00064657374727563743F2200FFFF1022576E
:103D0000686572652069732074686520636F756EDD
:103D100074646F776E3F22204865206C6F6F6B7301
:103D200020617420796F75206C696B6520796F75DF
:103D30002061726520736F6D6520736F7274206FE0
:103D400066206964696F742E2022544845524520CC
:103D50004953204E4F2043414E43454C20414E4451
:103D6000205448455245204953204E4F20434F553B
:103D70004E54494E47212200FFFF10225041525419
:103D800053204F4620544845205348495020415223
:103D90004520424C4F57494E472055502041532013
:103DA000574520535045414B212120495420574924
:103DB0004C4C20524541434820555320494E204108
:103DC000204D4154544552204F46204D494E5554A4
:103DD0004553204E4F572122003D7E37A146696E44
:103DE000642065736361706520706F640050757343
:103DF0006820677265656E20627574746F6E00224C
:103E000054484520534849502049532053454C4677
:103E1000204445535452554354494E47204E4F5722
:103E20002122205568206F682E00FFFF10596F7502
:103E3000206672616E746963616C6C792073746161
:103E400072742070757368696E672061206269679B
:103E500020677265656E20627574746F6E2E202205
:103E60004E4F2120594F55204944494F5421204459
:103E70004F4E275420505553482054484154212236
:103E8000205768617420636F756C642062652077C9
:103E90006F727365207468616E2067657474696EF3
:103EA0006720626C6F776E2075703F00FFFF1053C4
:103EB000756464656E6C792C20746865207368691C
:103EC0007020626567696E7320746F20616363653B
:103ED0006C65726174652E205468696E6773207317
:103EE00074617274206C6F6F6B696E672076657297
:103EF00079206F6464206F75742074686520776919
:103F00006E646F772E205468656E20746865206F2C
:103F100064646E6573732073746F70732E204974BC
:103F2000206973206E6F726D616C207370616365C0
:103F300020616761696E2E00FFFF10596F75207355
:103F4000656520616E6F7468657220706C616E6566
:103F500074206F757473696465207468652077696F
:103F60006E646F772C2061732074686520736869B4
:103F70007020636F6173747320746F776172647300
:103F80002061206769616E74206F72626974696E66
:103F900067206261736520737472756374757265EE
:103FA0002E205468652072756D626C696E672062A0
:103FB00065636F6D6573206576656E206C6F7564E3
:103FC00065722E00FFFF1022594F55204944494F7A
:103FD000542120594F5520434F4D4D414E444544A7
:103FE00020544845205348495020544F20444F43C3
:103FF0004B20574954482054484520484F4D4520B0
:104000004D454741424153452E2054484520515586
:1040100045454E20495320415420544845204D45A4
:1040200047414241534520544F4441592120594F63
:10403000552057494C4C204B494C4C204556455235
:10404000594F4E45212200FFFF1050656E64696E86
:104050006720646F6F6D20697320736F6F6E2061CE
:104060007070726F616368696E672C20796F75205C
:10407000637261636B2061206875676520736D6989
:104080006C652E003A573C0454656C6C207468656E
:1040900020747275746800496E73756C7420717544
:1040A00065656E206F76657220726164696F20624B
:1040B000726F61646361737400486F772077696C15
:1040C0006C20796F75207370656E6420796F7572DE
:1040D0002066696E616C206D6F6D656E74733F0054
:1040E000FFFF10596F75206D6F6E6F6C6F67756590
:1040F0003A20224920616D207265616C6C792061E3
:104100002068756D616E2E20492064696420746892
:10411000697320616C6C206F6E20707572706F73A4
:104120006520666F7220747279696E6720746F20E3
:1041300064657374726F79206F757220706C616E34
:1041400065742E204E6F7720796F752077696C6CBF
:1041500020616C6C206469652E204964696F7473FA
:104160002E2200FFFF105468652073686970206478
:104170006F636B7320776974682074686520486F7B
:104180006D65204D656761626173652E2041207603
:1041900065727920636F6E6365726E656420776FF8
:1041A0006D616E2C2077686F206C6F6F6B73206C65
:1041B000696B65206120717565656E2C206C6F6F71
:1041C0006B7320667269676874656E6564206174DC
:1041D00020746865207369676874206F6620796F42
:1041E0007572206578706C6F64696E67207368699A
:1041F000702100FFFF0054686520636F6D70757457
:104200006572206261726B73202244656E6F6E610D
:1042100074696E672073756261746F6D6963206D78
:1042200065676120626F6D622E222E2054686520C2
:1042300073686970206578706C6F6465732C207486
:10424000686520486F6D65204D65676162617365C3
:10425000206973206E6F206D6F72652C20616E6413
:10426000207468652061746D6F7370686572652075
:10427000626C6F7773206F66662074686520616C6E
:1042800069656E20706C616E65742E0A00FFFF1008
:10429000596F75206D6F6E6F6C6F6775653A202270
:1042A00054686973206973206120706C616E657455
:1042B000206D65676162617365207769646520625E
:1042C000726F6164636173742E20596F757220710F
:1042D0007565656E206973206120737475706964FB
:1042E000206964696F742E2053686520736D656C56
:1042F0006C732066756E6E7920616E642069732020
:104300007465727269626C65206174206D61746895
:104310002E2200FFFF10596F752063616E206865C3
:10432000617220636F6C6C65637469766520676188
:10433000737073207468726F7567686F757420741A
:104340006865207368697020616E64206F7665729D
:104350002074686520636F6D6D756E696361746943
:104360006F6E206368616E6E656C2E202254616BE7
:1043700065206974206261636B212220736F6D6513
:104380006F6E652073617973206F76657220746833
:104390006520726164696F2E00FFFF10596F7520F0
:1043A00074656C6C207468656D20796F7520776F0B
:1043B0006E277420616E6420796F7520686F706558
:1043C00020746865697220686F6D65206D6567612E
:1043D0006261736520626C6F7773207570207769F6
:1043E0007468206865722E20596F75206C6175673E
:1043F0006820756E636F6E74726F6C6C61626C793D
:104400002E00FFFF053ADAFFFF1054686572652041
:1044100069736E277420616E792100FFFF053750A4
:10442000FFFF10546869732069736E2774205374FA
:104430006172205472656B2100FFFF050D84080B2B
:10444000000202020000090400000102020000054F
:10445000240010010524010101042402060524069C
:1044600000010705810310004009040100020A0051
:10447000000007050202400000070583024000001B
:104480000403090412010002EF02014041233680B7
:1044900000010102030141726475696E6F204C4C8A
:1044A000430041726475626F7900E12B11241FBED5
:1044B000CFEFDAE0DEBFCDBF11E0A0E0B1E0EAE08F
:1044C000F2E602C005900D92A635B107D9F726E0B5
:1044D000A6E5B1E001C01D92AD39B207E1F712E2E5
:1044E000C6E5D2E204C02197FE010E94FD30C53529
:1044F000D107C9F70E94222C0C9403310C940000C0
:1045000080916E010895E6E2F2E0A0E0B8E000805C
:104510000EBC8111012C1197A0FDFDCF0192B9F7BE
:104520000DB4089580E00C948322982FE6E2F2E027
:1045300091119FEF8FEF919391939193919381506C
:10454000D0F70895FC0180912502882311F13FB72F
:10455000F89482E08093E9002091F200822F90E0AD
:104560001816190614F481E090E0882339F0289891
:1045700044E6409324024091F1004083222339F025
:104580002091F200211103C02BE62093E8003FBFE9
:1045900008958FEF9FEF08952FB7F89483E08093ED
:1045A000E9009091E800892F807295FF04C09091F6
:1045B000F20080E4891B2FBF089580911C028111B5
:1045C0000DC082E08093180284E08093190210925B
:1045D0001B0210921A0281E080931C0288E192E093
:1045E0000895CF93DF931F92CDB7DEB76983DC01C7
:1045F000ED91FC910280F381E02D41E050E0BE019D
:104600006F5F7F4F09950F90DF91CF91089583E001
:104610008093E9008091F200882319F08AE3809367
:10462000E80008950E94CC2290E00895CF93DF9394
:104630001F92CDB7DEB7FC018485958597FD08C034
:104640002FEF3FEF358724870F90DF91CF910895AB
:10465000CE0101960E94A222019719F4898190E06F
:10466000F3CF8FEF9FEFF0CF0F931F93CF93DF9395
:104670001F92CDB7DEB78C01FC018485958597FF2D
:104680000BC0CE0101960E94A222019771F489818C
:1046900090E0F80195878487F801848595850F90CF
:1046A000DF91CF911F910F9108958FEF9FEFF1CF81
:1046B000FC018485958597FD0BC09FB7F89482E037
:1046C0008093E9008091F2009FBF90E001960895E9
:1046D0009FB7F89482E08093E9008091F2009FBF39
:1046E00090E008954091120250911302209110021F
:1046F0003091110242175307B4F49091E80095707D
:10470000E1F39091E80092FD19C08093F10080914F
:1047100012029091130201968F739927892B19F435
:104720008EEF8093E800809112029091130201961F
:10473000909313028093120281E0089580E008951F
:10474000DF92EF92FF920F931F93CF93DF93D82EB8
:104750008A01EB017B01E40EF51ECE15DF0559F051
:10476000D7FE12C0FE0184910E947223219681110E
:10477000F4CF0FEF1FEFC801DF91CF911F910F9181
:10478000FF90EF90DF9008958881EECF0F931F93F5
:10479000CF93DF931F92CDB7DEB782E0898342E4E7
:1047A00050E06EE374E480E80E94A0230E94DD22C2
:1047B000DC0112960D911C910115110589F0D801AB
:1047C000ED91FC910280F381E02DBE016F5F7F4F80
:1047D000C801099597FD04C0F80100851185ECCF4B
:1047E00089810F90DF91CF911F910F9108956150B2
:1047F00030F02091F100FC0120830196F8CF289839
:1048000084E68093240208950895AF92BF92CF92D8
:10481000DF92EF92FF920F931F93CF93DF936C0180
:104820007B018B01040F151FEB015E01AE18BF0861
:10483000C017D10759F06991D601ED91FC91019013
:10484000F081E02DC6010995892B79F7C501DF912B
:10485000CF911F910F91FF90EF90DF90CF90BF907D
:10486000AF900895FC010E94C924319728F0685147
:104870007C4F8F4F9F4FF9CFAB01FC010E94C924A1
:10488000641775078E079F07C8F308958F929F924C
:10489000AF92BF92CF92DF92EF92FF920F931F934E
:1048A000CF93DF936C017B018A0180910B018823F8
:1048B00009F45AC080912502882309F455C08091DB
:1048C000170280FF05C08091E00082608093E000C5
:1048D000E801B12C8AEFA82E93E0892E2AE3922ECC
:1048E000209711F4BB20C9F10E94CC22811108C08D
:1048F000AA94AA20C9F181E090E00E943224F0CF6E
:104900008C171D0611F00CF08C2F9FB7F894809235
:10491000E9002091E80025FD02C09FBFE1CF282FCC
:1049200030E0C21BD30BF701815020F0419140933E
:10493000F100FACFE20EF31EBB2021F09092E800C6
:10494000B12CEBCF8091E80085FDE7CF9092E80095
:10495000BB24B394209709F3F3CF5D9884E680934A
:104960001602101611063CF081E090E0F6019383E8
:10497000828310E000E0C801DF91CF911F910F9179
:10498000FF90EF90DF90CF90BF90AF909F908F906F
:104990000895AAE6B1E02FB7F8947D918D919C918E
:1049A00066B52FBFA89B05C06F3F18F47F5F8F4F80
:1049B0009F4F22E0660F771F881F991F2A95D1F716
:1049C0000895AB01FC010E94C92441505109E1093D
:1049D000F10928F068517C4F8F4F9F4FF6CFAB0104
:1049E000FC010E94C924641775078E079F07C8F34E
:1049F000089520915D01E0915B01F0915C01CF0190
:104A0000029690935C0180935B01222319F08591BB
:104A100094910895808191810895CF92DF92EF92D1
:104A2000FF92CF93DF930E94F924811520E892072B
:104A300091F4809171008D7F8093710010929100AC
:104A40004698479810925A01DF91CF91FF90EF90CE
:104A5000DF90CF90089521E020935A01813020E823
:104A6000920751F4809158019091590190935C0103
:104A700080935B010E94F92497FD05C020915701A6
:104A8000222309F454C020915601211150C021E085
:104A900020935E01EC01DF77209709F04BC081E0A5
:104AA00080935F0146983FE9C32E3FE0D32EE12C6F
:104AB000F12CCAEFD0E0E0918406F09185060995CB
:104AC000811103C081E080935F0180915E018823A2
:104AD00029F080915F01882309F43FC047980E9424
:104AE000F9240097F1F19C01DE010E94EE30DC0117
:104AF000CB0129E0B595A795979587952A95D1F78C
:104B0000109290002AE020939100D0929900C092D8
:104B100098008093600190936101A0936201B0932B
:104B20006301809171008260809371008DCF10923B
:104B30005E01B0CF9E0150E040E060E472E48FE09F
:104B400090E00E949A3069017A0181E0C81AD10888
:104B5000E108F10810925F01AECF4699BFCF479AA6
:104B6000BECF8FEF9FEFDC01CBCF9C01E1E7F0E000
:104B700090819D7F908310925D01E6E7F6E0F093CF
:104B80005C01E0935B01F0935901E093580131839C
:104B900020837383628380E090E8958384830C9400
:104BA0000D252D9A089590E00C9432248FB18095B4
:104BB000807F669B88601C9B846008958038910587
:104BC000B8F460347105A0F490E121E061FD24E0C7
:104BD00060FD220F62FD2295687F969FD00111240F
:104BE000A80FAA5DBD4F0C90022A40FF02260C922E
:104BF00008958F929F92AF92BF92CF92DF92EF92E1
:104C0000FF920F93CF93DF935B01EC014C01840E75
:104C1000911C6B01C20ED11CC815D905D4F47501C5
:104C2000B7FE02C0F12CE12CC60121E4C216D1046A
:104C300014F080E490E0E816F9064CF4402FB70138
:104C4000CE010E94DE258FEFE81AF80AEDCF2196FB
:104C5000E3CFDF91CF910F91FF90EF90DF90CF9056
:104C6000BF90AF909F908F9008952F923F924F9258
:104C70005F926F927F928F929F92AF92BF92CF92EC
:104C8000DF92EF92FF920F931F93CF93DF93CDB7F5
:104C9000DEB72A970FB6F894DEBF0FBECDBF9A835A
:104CA00089836A3061F5DC0155968C91B8E08B9F61
:104CB00090011124E981FA8181899289820F931FE1
:104CC000928B818B108A178681E090E02A960FB62E
:104CD000F894DEBF0FBECDBFDF91CF911F910F9132
:104CE000FF90EF90DF90CF90BF90AF909F908F900C
:104CF0007F906F905F904F903F902F9008956D3010
:104D000019F329813A813A872987D9011F96AD90F5
:104D1000BC90B0E8AB16B1040CF07BC0F901C188BF
:104D2000D288F0E4CF16D1040CF073C0D9015596A7
:104D30006C90559745E09501649E200D311D11241E
:104D4000121613060CF065C0262C312C910153E08D
:104D5000220F331F5A95E1F72C0D3D1D1216130635
:104D60000CF057C05496BC91BB83E985FA85F38952
:104D7000FC83649FB00111249B0124553F4F3A836B
:104D80002983712CE981FA818491F5E07F1201C0B9
:104D900080E0460138E0532E282F30E03E832D83FB
:104DA0004C8080FF4B80411004C03B818C813817C0
:104DB000E1F010E000E00615C0F4D501A00FB11F2E
:104DC000B887AF83F12CE12CE61460F4B701680DCD
:104DD000791D442D8F8198850E94DE25BFEFEB1A47
:104DE000FB0AF2CF0F5F1F4FE6CF8D819E81959515
:104DF00087955A94820C931C5110CECF7394E981FD
:104E0000FA813196FA83E983A20CB31CF6E07F1293
:104E1000B9CFA985BA8555962C915597422F50E068
:104E20001F968D919C91B6E02B9F800D911D1124B2
:104E3000E985FA85908B87872689222309F444CF58
:104E40006AEF64039001659F300D112420583F4F95
:104E5000281739070CF038CFDF010190F081E02DE1
:104E60000190F081E02D6AE0CD0109952DCF0895E4
:104E7000089590E080E008950F93CF93DF936091C1
:104E800097067091980600E028E048E0809195062A
:104E9000909196060E94F9250E94922262E370E0AA
:104EA00088E592E00E94B52562E370E080E090E042
:104EB0000E94E12462E370E086E295E00E94B5255D
:104EC00062E370E080E090E00E94E12462E370E041
:104ED00084E893E00E94B52562E370E080E090E012
:104EE0000E94E124D0E0C0E00E94D62582FF18C0D5
:104EF00010929606109295061092980610929706B8
:104F000080E00E94952210929806109297061092C7
:104F1000960610929506DF91CF910F910C949222F4
:104F20000E94D62583FDE4CFCF5FC93278F0D1301F
:104F3000A1F401E02AE04AE067E370E088E790E04E
:104F40000E94F9250E949222D0E0C0E06AE070E061
:104F500080E090E00E94E124C7CF00E02AE04AE030
:104F600067E370E088E790E00E94F9250E949222B2
:104F7000CD2FD1E0EBCFFC0101900020E9F7319774
:104F8000AF01481B590BBC0186E896E00C94052440
:104F90000F93CF93C82F80910F028F5F80930F02E2
:104FA0008531B8F0609197067091980600E028E08E
:104FB00048E080919506909196060E94F92542E07E
:104FC00050E06DE371E086E896E00E9405241092BF
:104FD0000F02CA3079F4609197067091980600E04C
:104FE00028E048E080919506909196060E94F92568
:104FF00010920F026C2F86E896E00E94352662E040
:1050000070E086E295E00E94B52560919706709168
:10501000980601E028E048E0809195069091960678
:105020000E94F9250E94922262E370E080E090E005
:10503000CF910F910C94E1240C9484301F920F9225
:105040000FB60F9211248F939F938091E10090915E
:10505000E100937F9093E10083FF0FC01092E9007D
:1050600091E09093EB001092EC0092E39093ED00AE
:105070001092250298E09093F00082FF22C093E006
:105080009093E9009091F200992319F09AE390939C
:10509000E80090911602992341F0909116029150E8
:1050A00090931602911101C05D9A90912402992368
:1050B00041F090912402915090932402911101C0EB
:1050C000289A84FF18C08091E2008E7E81608093D0
:1050D000E2008091E1008F7E8093E10080911702D1
:1050E0008E7E8061809317029F918F910F900FBEEB
:1050F0000F901F90189580FFF7CF8091E2008E7E71
:1051000080618093E2008091E1008E7E8093E100D7
:10511000809117028E7E8160E5CF1F920F920FB6AD
:105120000F921124CF92DF92EF92FF920F931F9371
:105130002F933F934F935F936F937F938F939F939F
:10514000AF93BF93EF93FF93CF93DF93CDB7DEB7CA
:105150006C97DEBFCDBF1092E9008091E80083FF1D
:1051600025C068E0CE0145960E94F72382EF809328
:10517000E8008D8987FF39C09091E80090FFFCCF4F
:10518000982F907609F034C19E894F89588D2F89C8
:10519000F88C911131C0803861F5809115028093AF
:1051A000F1001092F1008EEF8093E8006C960FB63C
:1051B000F894DEBF0FBECDBFDF91CF91FF91EF918D
:1051C000BF91AF919F918F917F916F915F914F911F
:1051D0003F912F911F910F91FF90EF90DF90CF9013
:1051E0000F900FBE0F901F9018959EEF9093E800C0
:1051F000C7CF1092F100D5CF913059F48111D3CFA0
:105200004130510581F6809115028D7F8093150202
:10521000CACF933049F48111C6CF4130510519F6F8
:10522000809115028260F2CF953041F48091E800C0
:1052300080FFFCCF20682093E300B5CF963009F0C3
:10524000A9C00B8D1C8D22E01092E9001092130270
:1052500010921202F2122EC010921102109210023D
:105260000E94C6231F8299E09983FA8291E09E836F
:1052700090EA98879AEF9987209112023091130251
:10528000275F3F4F3C832B838D831092E900109260
:10529000130210921202109311020093100249E0BF
:1052A00050E0BE016F5F7F4F80E00E94A0230E940C
:1052B000C62379CF10931102009310020E94DD22C1
:1052C000DC0112960D911C910115110509F451C1D3
:1052D000D801ED91FC910480F581E02DBE016B5E5B
:1052E0007F4FC8010995009709F03EC1F80100857C
:1052F0001185EACFF3E0FF120EC08F89882309F4ED
:1053000040C0823061F440E867E082EA94E40E94A1
:105310006A2B811148CF81E28093EB0047CF813027
:1053200029F440E86BE086E994E4F1CF833099F703
:105330000E94DD22DC011296ED90FC908E010F5F41
:105340001F4F6801E114F10479F0D701ED91FC9150
:105350000680F781E02DB801C7010995080F111DDE
:10536000F701E084F184EECFD8011C92F6010190A0
:105370000020E9F73197BF016C197D0940E0C601B3
:10538000C6CF60E874E4FB01449150E080E80E94DD
:10539000A02309CF973009F4BECF983021F481E0E3
:1053A0008093F10000CF993009F0FDCE837009F0B1
:1053B000B2CFE1E1F1E081E031E096E321912223F7
:1053C00071F08093E9003093EB00DF0111972C918D
:1053D0002093EC009093ED008F5F873079F78EE794
:1053E0008093EA001092EA008F8980932502DBCE39
:1053F0008B8D9C8D1092E900109213021092120274
:105400009093110280931002898D811192C08E8930
:105410009D89913A49F4813209F07DCF47E050E00F
:1054200064E071E080E0B3CF913209F074CF833251
:1054300069F48F89988DB0E0A0E08093000190938B
:105440000101A0930201B0930301ADCE803269F453
:105450008091E80082FFFCCF67E084E091E00E9449
:10546000F7238BEF8093E8009ECE823209F09BCE2B
:105470008F8980930B01EEEFFFE7859194918B3F2D
:105480009C4D51F1E0E0F8E080910401909105011C
:10549000A0910601B0910701803B9440A105B105A0
:1054A000F1F480910B0180FD1AC0EE3F8AE0F8070D
:1054B00089F587E797E791838083809160008093E7
:1054C000140288E19BE00FB6F894A89580936000E1
:1054D0000FBE9093600067CEEEEFFAE0D5CF8081EB
:1054E00091818737974709F05ECEA895809160003B
:1054F0008861809360008091140280936000EE3F89
:105500002AE0F20789F08091FE0A9091FF0A9183C8
:10551000808349CE808191818737980751F290939B
:10552000FF0A8093FE0AC5CF1092FF0A1092FE0A6E
:105530003ACE0E94DD22DC0112960D911C910115DC
:10554000110509F4E8CED801ED91FC910190F081AC
:10555000E02DBE016B5E7F4FC8010995811123CEFE
:10556000F80100851185EBCF181619060CF41BCE37
:10557000D2CEF1E0FF12BECE64E874E404CF0F9205
:105580000FB68F939F93EF93FF93809165018D5F8B
:105590008D3708F08D5780936501E6E6F1E0808154
:1055A0008E4F808391819F4F918382818F4F828321
:1055B00083818F4F8383EAE6F1E080818F5F808370
:1055C00081818F4F818382818F4F828383818F4F2F
:1055D00083838FB18F6066991C9B88278F3681F4F7
:1055E00080916401981B963068F0E0E0F8E087E76E
:1055F0008083818388E180936000F0936000FFCF17
:1056000090936401FF91EF919F918F910FBE0F9046
:1056100018951F920F920FB60F9211242F933F935C
:105620004F935F936F937F938F939F93AF93BF93AA
:10563000EF93FF938091600190916101A0916201CD
:10564000B0916301892B8A2B8B2B09F440C0809188
:105650005F0181110BC088B190E4892788B98091DE
:105660005E01882319F088B1805888B98091600163
:1056700090916101A0916201B09163011816190621
:105680001A061B069CF48091600190916101A09123
:105690006201B09163010197A109B1098093600192
:1056A00090936101A0936201B0936301FF91EF9128
:1056B000BF91AF919F918F917F916F915F914F912A
:1056C0003F912F910F900FBE0F901F9018950E9441
:1056D0000D25ECCFEF92FF920F931F93CF93DF93A3
:1056E000F82E192FE62E042F81E0860F880F0E94D6
:1056F000722383E00E947223CF2DD12FEC0EFD2E5A
:10570000F11CCE15DF05B9F007FF13C0FE0184912F
:105710000E947223182F80E00E9472238123219619
:105720008111EFCFDF91CF911F910F91FF90EF90FB
:1057300008958881EDCF81E0F5CF0F931F93CF932C
:10574000DF938C0181E090E00E941C2880FF31C033
:105750008AE090E00E941C289FEF980F9E3F48F53A
:1057600022E330E0D80150963C932E931F9728E314
:1057700030E052963C932E935197CBE0D0E0D80185
:10578000ED91FC910190F081E02D682FC801099501
:10579000CE010E941C282196C131D10581F70E94BB
:1057A000922288EE93E0DF91CF911F910F910C949C
:1057B0003224DF91CF911F910F91089504970C949B
:1057C0009D2BE6E2F6E01382128288EE93E0A0E0E1
:1057D000B0E084839583A683B7838BE191E09183C6
:1057E00080838FEF9FEF95878487E6E8F6E013824A
:1057F00012821186128680E18387108617821586B1
:105800008DE291E0918380838BE391E095838483A3
:10581000108A1786128A118A81E0838B148A858BFD
:10582000168A80E892E2909385068093840680E051
:1058300090E8909383068093820646983E9A479814
:105840003F9A0895789483E084BD83E085BD81E02C
:1058500080936E00E1E8F0E083E08083E0E881E09F
:105860008083E1E983E08083E0E981E08083E1EC0B
:1058700087E08083E3EC81E08083E0EC82E080835A
:10588000E2EC81E08083EAE787E0808380688083C0
:105890001092250210921502109217028091D700E3
:1058A00081608093D70080EA8093D80089B58061B9
:1058B00089BD89B5826089BD09B400FEFDCF81E054
:1058C00090E00E9432248091D8008F7C8061809388
:1058D000D8008091E000807F8093E0008091E1001B
:1058E0008E7E8093E1008DE08093E200559A209AAD
:1058F00081EC80937C0081EF85B987EE84B982E3E7
:105900008BB982EF8AB9769A6E9880EF81BB10BA14
:1059100080E58CBD81E08DBD85E00E94D3255F9A36
:1059200085E00E94D3255C98ECE5F6E085918EBD7C
:1059300000000DB407FEFDCF8EB5E936B9F75C9ACD
:1059400081E88093640081E0809365000E94832257
:105950000E94D62587FF16C05C9885EA8EBD0000A0
:105960000DB407FEFDCF8EB55C9A2E982F982D981A
:105970008091640080628093640081E083BF889599
:1059800013BEFCCF0E94D62582FF45C02D980E94F1
:10599000D62584788438D9F40E94D12588EC0E94D9
:1059A000D3252F9882E090E00E9484308F3F29F029
:1059B0006FEF82E090E00E948C3084EF91E00E94D3
:1059C00032242F9A0E94D62584788438D9F30E94F5
:1059D000D62584718431D9F40E94D12588EC0E94A7
:1059E000D3252E9882E090E00E948430882329F00D
:1059F00060E082E090E00E948C3084EF91E00E94B1
:105A000032242E9A0E94D62584718431D9F388ECF1
:105A10000E94D325B7CF0E94D12582E090E00E945A
:105A20001C28882309F4CAC03E9A3F9A81E08093DB
:105A30006E0181E090E00E941C28182F147081FFF5
:105A40000CC011112E98C0EFDFEF0E94D62586FF03
:105A5000BAC02E9A2F9A0E94D12582E30E94D325A4
:105A60000E94D6258111F9CF0E94952210929806A6
:105A700010929706109296061092950608EF1FEF67
:105A800050E8A52EB12C80E00E9495221092980635
:105A90001092970610929606109295066801F12CC6
:105AA000E12CD0E0C0E0FE0143E0F595E7954A9592
:105AB000E1F7EE0DFF1DE759F94FE491CE01877034
:105AC0009927950102C0359527958A95E2F7C90176
:105AD000F0E0E223F923EF2B31F041E0B601CE01F3
